:020000040000fa
:080000000002040000000000f2
:020000040000fa
:100400000f8720000e7f22000e01880000000000f0
:100410000c00070020a92200010020001f00070097
:10042000000020000000e000020032000000020096
:100430000000000054270200000000000040da0025
:100440000000fe004440a900000020000000e00081
:100450000300320000002000a00188004440a800f2
:1004600000000600f03fb1000180b1000600350039
:10047000ee03090000000000403fb1000180b10020
:10048000fbff3d001000b000203fb000020035002f
:1004900000800900000000000000060091018800b3
:1004a000800078000000eb0015003700e28040007b
:1004b00032a0b4009101ba00e280400032a0b40042
:1004c0009102ba00e280400032a0b4000002eb00ca
:1004d000472bde00f507b200602ce10004003a0073
:1004e0000059eb008301e900fdff3e0004003700e6
:1004f0006128e100010032000082eb0004000700e7
:100500001101ba000200e000e8ff3a000000060016
:100510003159ba008301e9000c0032002159ba00b8
:100520008301e900080032000400e00003003a0003
:10053000e280400032a0b400f5ff370011d9ba00c4
:100540008301e900faff3a008100e800e180400001
:1005500032a0b400000006000040da000000fe00f7
:020000040000fa
:020000040001f9
:04fff8009e7a0000ed
:020000040000fa
:020000040001f9
:04fffc00201e0000c3
:020000040000fa
:10000800ac020000ac020000ac020000ac02000030
:10001800ac020000ac020000ac020000ac02000020
:10002800ae260000ac020000ac020000ac020000ea
:10003800ac020000ac020000ac0200001027000077
:100048002a270000ac020000ac0200008426000051
:10005800ac020000ac020000ac020000ac020000e0
:10006800ac020000ac020000ac020000ac020000d0
:10007800e8260000ac020000ac020000ac02000060
:10008800ac020000ac020000ac020000ac020000b0
:10009800ac020000fc260000ac020000ac0200002c
:1000a800ac020000ac020000ac020000ac02000090
:1000b800ac020000ac020000ac020000ac02000080
:1000c800ac020000ac020000ac020000ac02000070
:1000d800ac020000ac020000ac020000ac02000060
:1000e800ac020000ac020000ac020000ac02000050
:1000f800ac020000ac020000ac020000ac02000040
:10010800ac020000ac020000ac020000ac0200002f
:10011800ac020000ac020000ac020000ac0200001f
:10012800ac020000ac020000ac020000ac0200000f
:10013800ac020000ac020000ac020000ac020000ff
:10014800ac020000ac020000ac020000ac020000ef
:10015800ac020000ac020000ac020000ac020000df
:10016800ac020000ac020000ac020000ac020000cf
:10017800ac020000ac020000ac020000ac020000bf
:10018800ac020000ac020000ac020000ac020000af
:10019800ac020000ac020000ac020000ac0200009f
:1001a800ac020000ac020000ac020000ac0200008f
:1001b800ac020000ac020000ac020000ac0200007f
:1001c800ac020000ac020000ac020000ac0200006f
:1001d800ac020000ac020000ac020000ac0200005f
:1001e800ac020000ac020000ac020000ac0200004f
:0801f800ac020000ac020000a3
:020000040000fa
:10020800ac020000ac020000ac020000ac0200002e
:10021800ac020000ac020000ac020000ac0200001e
:10022800ae260000ac020000ac020000ac020000e8
:10023800ac020000ac020000ac0200001027000075
:100248002a270000ac020000ac020000842600004f
:10025800ac020000ac020000ac020000ac020000de
:10026800ac020000ac020000ac020000ac020000ce
:10027800e8260000ac020000ac020000ac0200005e
:10028800ac020000ac020000ac020000ac020000ae
:10029800ac020000fc260000ac020000ac0200002a
:1002a800ac020000ac020000ac020000ac0200008e
:1002b800ac020000ac020000ac020000ac0200007e
:1002c800ac020000ac020000ac020000ac0200006e
:1002d800ac020000ac020000ac020000ac0200005e
:1002e800ac020000ac020000ac020000ac0200004e
:1002f800ac020000ac020000ac020000ac0200003e
:10030800ac020000ac020000ac020000ac0200002d
:10031800ac020000ac020000ac020000ac0200001d
:10032800ac020000ac020000ac020000ac0200000d
:10033800ac020000ac020000ac020000ac020000fd
:10034800ac020000ac020000ac020000ac020000ed
:10035800ac020000ac020000ac020000ac020000dd
:10036800ac020000ac020000ac020000ac020000cd
:10037800ac020000ac020000ac020000ac020000bd
:10038800ac020000ac020000ac020000ac020000ad
:10039800ac020000ac020000ac020000ac0200009d
:1003a800ac020000ac020000ac020000ac0200008d
:1003b800ac020000ac020000ac020000ac0200007d
:1003c800ac020000ac020000ac020000ac0200006d
:1003d800ac020000ac020000ac020000ac0200005d
:1003e800ac020000ac020000ac020000ac0200004d
:0803f800ac020000ac020000a1
:020000040000fa
:103800000600fa0042c0bf000080fb004500de0059
:103810000080fb00200798009002800010079800ad
:10382000ff3ffc00210420009140780000ceb3004f
:1038300000c0700042e0b7001e00900090028800b7
:103840006407070090028000000f7800ff3ffc0033
:103850002e00900067406000c500dd0042c0bf0040
:103860007f4060000140700042e0b7001e00780019
:10387000900288000080fa00000006000c00fa00a8
:103880006047980071479800024f980032c0bf000f
:103890000080fb00000f78000240200003002000a1
:1038a0006e4090008080fb0000c020000088b900be
:1038b0000100200002014000838148007e4090000a
:1038c0000080fb004a00dd000100200002004000f3
:1038d000838048004008de000100200032e0b7008d
:1038e0000040200001002000000178006e409000a0
:1038f0000080fb006300b900800078007e409000eb
:103900000080fb00008040004a00dd000000410014
:10391000200798002e0090002a07070080407800ba
:1039200000c0eb0000c06000304798000e489000d7
:103930000080fb00500798005e009000f30f5000dd
:103940000d0032005e009000f40f500010003200b5
:103950005e009000f20f50000100320012003700ac
:103960003e4090000080fb00640060004280de006a
:10397000204798000e0037003e4090000080fb007a
:10398000680060004380de00204798000800370090
:103990003e4090000080fb00700060004480de002c
:1039a00020479800020037000040eb0020479800b5
:1039b0001e00780032e0b7002e4090000080fb002f
:1039c0000080fa00000006000600fa004047980058
:1039d0005147980032c0bf000080fb00000f780004
:1039e00002402000030020004e4090008080fb0039
:1039f00000c020000088b900010020000201400042
:103a0000838148005e4090000080fb004a00dd009a
:103a10000100200002004000838048004008de00d2
:103a20000100200032e0b70020042400003b8800a1
:103a30000040200001002000000178004e4090006e
:103a40000080fb006300b900800078005e409000b9
:103a50000080fb00008040004a00dd0000004100c3
:103a6000100798009e0090001e009000ea060700d4
:103a700063ff07001e00780032e0b7000080fa0004
:103a8000000006000c00fa00204f98000000eb0038
:103a90004007980032c0bf000080fb00000f780094
:103aa0000000eb0030079800030037003e00900054
:103ab0000000e800300798003e009000e20f500040
:103ac00007003c003e0090008040780032c1b30007
:103ad0002e48900069ff0700e10f5000f3ff32000d
:103ae00002402000030020002e4890008080fb0050
:103af00000c020000088b900010020000201400041
:103b0000838148003e0090004a00dd000100200053
:103b100002004000838048004008de0001002000d1
:103b200032e0b700004020000100200000017800d2
:103b30002e4890000080fb006300b90080007800f0
:103b40003e009000008040004a00dd00000041007f
:103b5000100798004e0090000080e8004007980091
:103b60001e0090000080e800100798001e009000e2
:103b7000940607008040780000c0eb0000c06000a1
:103b800040479800ce009000f03f2000808f50000a
:103b900003003c004e409000e14f4000edff3a0032
:103ba000ce00900000402000808f500002003a00bc
:103bb0000000eb00400798001e00780032e0b700dc
:103bc0004e0090000080fa00000006001600fa0087
:103bd000881f78002057980032c0bf000080fb008b
:103be000600798000000eb00000f9800030037000a
:103bf0000e0890000000e800000f98000e089000ea
:103c0000e20f500007003c000e0890008040780052
:103c100032c1b3002e50900018ff0700e10f500092
:103c2000f3ff32000e089000e30f500006003a0048
:103c30006e00900032e0b7006668a80030002000f7
:103c4000200f9800630137000e0890000000e80084
:103c5000700798007e009000e30f500015003a00b6
:103c60000000eb0070079800120037007e00900003
:103c70000000e800700798007e009000e30f5000fd
:103c800002003a000000eb0070079800fe00900070
:103c90000e089000808f500006003a006e009000e1
:103ca00032e0b7006628a80010002000200f98001e
:103cb000480137007e0090008040780042c1b30088
:103cc0002e509000edfe07000000e000e7ff3200fc
:103cd00002402000030020002e5090008080fb0056
:103ce00000c020000088b90001002000020140004f
:103cf000838148007e0090004a00dd000100200022
:103d000002004000838048004008de0001002000df
:103d100032e0b700004020000100200000017800e0
:103d20002e5090000080fb006300b90080007800f6
:103d30007e009000008040004a00dd00000041004d
:103d4000400798002e5090004eff07000000e00052
:103d5000010032006648a80066c8bf00004f780026
:103d60006608a9000000eb0030079800100024004e
:103d7000003b8800ce0090000080eb002606070084
:103d8000ce009000f00f20001f0607004e009000ac
:103d90000080e800400798000040eb004047980092
:103da0003e0090000000e800300798003400370023
:103db0002e5090008080fb00f00f20000088b9009a
:103dc000800078004e4090000080fb0000804000a2
:103dd000b4010700100798003043800061006000c4
:103de0000000e000020032006608a9000d00370064
:103df0001e009000ce009000070607004e40900085
:103e00000080fb00ce009000ff0507004e009000f0
:103e10000080e800400798003e0090000000e800a5
:103e2000300798004e4090000040e800404798005e
:103e30000c003700ce0090000080eb00f605070074
:103e4000ce009000f00f2000ef0507004e0090001c
:103e50000080e800400798003e0090000000e80065
:103e6000300798004e409000e14f400004003a00b7
:103e7000be009000f0032000808f5000edff340062
:103e80004e409000e14f400004003200be00900020
:103e9000f0032000808f5000c5ff340058fe07005b
:103ea0000000eb00300798004e409000e14f4000ca
:103eb000f3ff3a001e40780066e8b7000240200099
:103ec000030020002e5090008080fb0000c02000e6
:103ed0000088b900010020000201400083814800f1
:103ee0007e0090004a00dd0001002000020040003a
:103ef000838048004008de000100200032e0b70067
:103f00000040200001002000000178002e509000a9
:103f10000080fb006300b900800078007e00900004
:103f2000008040004a00dd00000041000080e80001
:103f300040079800ce0090004e0090000000e8007e
:103f400040079800010078009e0507004047980050
:103f5000ce0090004e0090000000e800400798005e
:103f6000010078009905070010079800210037002c
:103f70002e5090008080fb00f00f20000088b900d8
:103f8000800078004e4090000080fb0000804000e0
:103f900044010700800078001e009000808f5000d0
:103fa000060032006e00900032e0b70066e8a8001c
:103fb00070002000200f980086003700ce0090008f
:103fc0004e0090000000e8004007980001007800d3
:103fd0007c05070040479800ce0090004e009000fe
:103fe0000000e8004007980001007800770507000e
:103ff000100798004e409000e14f4000dcff3a006f
:104000000040200001002000000178002e509000a8
:104010000080fb006300b900800078000e0890006b
:10402000008040004a00dd00000041005007980079
:104030000040200001002000000178002e50900078
:104040000080fb006300b900800078007e009000d3
:10405000008040004a00dd00000041004007980059
:1040600002402000030020002e5090008080fb00c2
:1040700000c020000088b9000100200002014000bb
:10408000838148000e0890004a00dd0001002000f6
:1040900002004000838048004008de00010020004c
:1040a00032e0b7005e009000480507001007980056
:1040b0005e00900043050700404798007e00900096
:1040c0000000e00003003a001e0090000000e8003d
:1040d000100798001e009000e30f50000500360006
:1040e0006628a800f0ceb300ce40900000c060006b
:1040f0004047980002402000030020002e5090000e
:104100008080fb0000c020000088b9000100200072
:1041100002014000838148007e0090004a00dd00db
:104120000100200002004000838048004008de00bb
:104130000100200032e0b7004e4090000080fb00fc
:10414000ce009000300507001e009000ce009000c9
:104150003105070030002400003b8800a8fd07005f
:104160004e4090000084fb004e00900015050700b3
:10417000800f540006003a004e009000130507001f
:10418000800078001e009000808f500006003200f2
:104190006e00900032e0b70066e8a80070002000d2
:1041a000200f98000b0037000e0890008040780028
:1041b0002e50900004fe07006e00900032e0b70021
:1041c000304380000000d100614060000080fb00af
:1041d000200f98002e0890004f0478000080fa000d
:1041e000000006000e00fa0032c0bf000080fb0095
:1041f0004007980000402000010020004008de0039
:104200000100200032e0b7000040eb00004f7800d2
:104210009c0037000040eb00304f98000040eb005e
:10422000204f98000000eb00100798000000eb0002
:1042300030079800030037003e0090000000e800bf
:10424000300798003e009000e20f500007003e004b
:104250003e0090008040780042c1b3001e407800cc
:1042600086fd07000000e000f3ff32003e009000f2
:10427000e30f500006003a004e00900032e0b70015
:104280006628a80010002000600798008200370010
:104290000000eb00300798000d0037003e00900052
:1042a0008040780032c1b3001e40780073fd0700e3
:1042b0000000e00003003a003e4890000040e800a3
:1042c000304f98003e0090000000e8003007980052
:1042d0003e009000e20f5000f0ff36003e48900094
:1042e0000004e00022003a008040eb001e4078000d
:1042f000b5fd070002402000030020009e80fb0067
:1043000000c020000088b900010020000200400029
:10431000838048004008de000100200032e0b70042
:104320000040200001002000000178009e80fb007a
:1043300000c020000088b90000004100200798005c
:1043400030002400003b8800ae0090000000eb002d
:10435000b1040700ae009000300f2000aa0407004f
:1043600027fd07004e00900032e0b7004400370000
:104370003e489000e14f500003003a004e0090008c
:1043800032e0b7003e0037003e489000e24f500058
:1043900035003a0032c1b30021c0b3001e4078009e
:1043a00036fd07000000e0000b003a0032c1b30008
:1043b0008040eb001e40780030fd07000000e00068
:1043c00005003a0020002000300798000040eb0074
:1043d000204f9800180037000000eb0030079800cd
:1043e000030037003e0090000000e800300798000e
:1043f0003e0090008040780032c1b3001e4078003b
:104400001efd0700e10f500003003a003e0090003f
:10441000e20f5000f3ff36003e0090000040e8003d
:10442000204f98002e489000e34f500002003a00c1
:104430000040eb00204f9800ae4890001e407800ee
:1044400061fd07001e4078008efd07000000e000bf
:1044500002003a001e407800dcfd07004e0090008c
:1044600032e0b700060037004e00900032e0b7009f
:1044700066c8a800600020006007980006003700aa
:104480001e4fe80010c0b3009e4f100061ff3600c1
:104490000000eb00600798006e0090000080fa00ba
:1044a000000006001000fa0060079800ee0090007f
:1044b000d01f2000808f50000400360066a8a8009e
:1044c0000080eb0070079800670037006e009000d6
:1044d000f20f2000110009000280d800004f780080
:1044e00032c0bf000080fb00500798000000eb00c6
:1044f00040079800030037004e0090000000e800dd
:10450000400798004e009000e20f500007003e0068
:104510004e0090008040780032c1b3001e40780009
:10452000d6fc0700e10f5000f3ff32004e00900070
:10453000e30f500006003a005e00900032e0b70042
:1045400066c8a8000080eb0070079800460037009e
:1045500002402000030020009e80fb0000c02000dd
:104560000088b9000100200002014000838148005a
:104570004e0090004a00dd000100200002004000d3
:10458000838048004008de000100200032e0b700d0
:104590000040200001002000000178009e80fb0008
:1045a00000c020000088b900800041004e0090004b
:1045b0004a00dd0000804000e03fb0003007980076
:1045c00000202000100798003e009000fd03070027
:1045d000200798003e0090000080e9003007980016
:1045e0001e0090000000e900100798001e009000d7
:1045f0000000e000090032006e009000f20f200081
:10460000110009000280d8008000fd0080007800c1
:104610002e009000808f5000ebff3a001e009000ab
:104620000000e00006003a006608a8005e00900066
:1046300032e0b7000080eb00700798000a003700f6
:104640003e0090000080e800300798003e00900097
:10465000de030700200798005e00900032e0b700fc
:104660002e009000700798007e0090000080fa00f5
:10467000000006001400fa0070079800010f98006f
:104680008e089000d01f2000808f5000040036005c
:1046900066a8a80050002000100f9800bd00370049
:1046a0000e089000f20f2000110009000280d800cf
:1046b000000f780032c0bf000080fb005007980058
:1046c00030002400003b88000000eb004007980009
:1046d000030037004e0090000000e80040079800fb
:1046e0004e009000e20f500007003c004e0090008a
:1046f000804078001e00780032c1b3005ffc0700e4
:10470000e10f5000f3ff32004e009000e30f500025
:1047100006003a005e00900032e0b70066c8a800cc
:1047200060002000100f98009a003700024020001f
:10473000030020009e00780000c020000088b9001f
:104740000100200002014000838148004e009000db
:104750004a00dd0001002000020040008380480084
:104760004008de000100200032e0b70000402000d9
:1047700001002000000178001e0078006300b900ed
:10478000800078004e009000008040004a00dd006c
:10479000000041003007980066c8bf00204798001d
:1047a0000e0890003fff0700800078007e00900018
:1047b000808f50000b003a003043800061006000a1
:1047c0000000e00007003a005e00900032e0b70011
:1047d0002e40900066e8b7000000eb00100f980034
:1047e0006c0037002e40900066e8b7001e0078008d
:1047f000a4fc0700200798002e0090000000e000b5
:1048000006003a005e00900032e0b7006688a8001b
:1048100040002000100f98005e003700be0090009e
:104820002e00900000804000300798007e0090002d
:10483000be009000780307000e089000f20f2000e1
:10484000110009000280d8008000fd00be00900029
:104850006d030700eafb07000000000000000000f5
:104860003e009000590307008040780000c0eb0034
:1048700000c06000404f98004e4890000081fb004f
:10488000fe009000f00f200000806000800f5100bb
:10489000060032005e00900032e0b70066e8a80033
:1048a00070002000100f98003a0037003e00900082
:1048b000440307008040780000c0eb0000c06000a7
:1048c000404f98004e4890008080fb000e089000fa
:1048d000f20f2000811f7800110009000280d8002b
:1048e0000001780001007800cf007800808f500030
:1048f000060032005e00900032e0b70066e8a800d3
:1049000070002000100f9800220037003e00900039
:104910000000e800300798003e0090002b030700dd
:104920004880de008040780000c0eb0000c06000de
:10493000404f98004e4890000081fb007e009000a0
:10494000c800de00f00f200000806000800f5100e2
:10495000060032005e00900032e0b70066e8a80072
:1049600070002000100f98000a003700ae00900081
:10497000e03f2000808f500002003a001e007800c7
:1049800092fc07005e00900032e0b7000000eb00f0
:10499000100f98001e0890000080fa00000006002a
:1049a0000000fa00de42a800de62a90021c2bf00ba
:1049b00021c2bf002122a9002102a90020e2a800f3
:1049c00020c2a90020a2a9002042a9002022a900fb
:1049d0002002a90023e2a90023a2a90023c2a90062
:1049e0002362a90022e2a90022c2a90022a2a900f2
:1049f0002062a90010082000401188009580a900bd
:104a00009560a900a9c0a900a9a0a900a980a90032
:104a100021e2a8002342a8000080fa00000006005e
:104a20000000fa00dea2a900de82a90031c2bf00a8
:104a300031c2bf003122a9003102a90030e2a80032
:104a400030c2a90030a2a9003042a9003022a9003a
:104a50003002a90033e2a90033a2a90033c2a900a1
:104a60003362a90032e2a90032c2a90032a2a90031
:104a70003062a80090002000c011880097e0a900d3
:104a800097c0a900b340a900b320a900b300a900b2
:104a900031e2a8003342a8000080fa0000000600be
:104aa0000200fa00000f780023c2bf0062406000dd
:104ab0000004e000fcff3a001e007800201188008e
:104ac0000080fa00000006000400fa00000f7800e1
:104ad00011079800050037001e007800104078008c
:104ae0000000fb00eeff07001e0fe8001e0078002c
:104af000104078000004e000f7ff3a001e0090002c
:104b00000000e00004003200d0002000e4ff0700b5
:104b1000a0002000e2ff07000080fa00000006006d
:104b20000000fa00301180000080fa00000006004a
:104b30000000fa0022c2bf00614060000004e000f3
:104b4000fcff3200301180000080fa0000000600f7
:104b50000200fa00000f780033c2bf00624060001c
:104b60000004e000fcff3a001e007800a01188005d
:104b70000080fa00000006000400fa00000f780030
:104b80001107980033c2bf00624060000004e000db
:104b9000fcff3a001e0090004800dd001e004000af
:104ba000a01188000080fa00000006000400fa004e
:104bb000000f780011079800050037001e007800ec
:104bc000104078000000fb00e1ff07001e0fe80026
:104bd0001e007800104078000004e000f7ff3a0063
:104be0001e0090000000e00004003200d000200011
:104bf000d7ff0700a0002000d5ff07000080fa00c3
:104c0000000006000000fa0032c2bf0061406000f0
:104c10000004e000fcff3200b01180000080fa00c8
:104c2000000006000000fa0032c2bf0061406000d0
:104c30000004e000fcff3200b01180000080fa00a8
:104c4000000006000c00fa003007980041079800a9
:104c50000000eb00200798000000eb00000f780038
:104c60000e003700be0090001e0078000088de00b5
:104c7000100798001e009000610060001007980067
:104c80001e009000e10f500003003a002e0090003b
:104c90000000e800200798001e0fe80070002000c8
:104ca0009e0f1000efff34002e00900061006000a6
:104cb0000004e000090032004e0090000000e00017
:104cc00003003a0010002000500798000b00370046
:104cd0000000eb0050079800080037004e009000dd
:104ce0000000e00003003a000000eb0050079800cd
:104cf0000200370010002000500798005e0090006e
:084d00000080fa00000006002b
:020000040000fa
:100560000400fa0010002000000f78000000eb00eb
:10057000c0168800de02a900de22a900e002a80061
:1005800000000000e022a8000000eb001007980027
:10059000100037001e007800d01688001e0078007a
:1005a00000004000000f7800000420009e0f1000a3
:1005b00002003a0010002000000f780000122a000c
:1005c00071002000a7ff07001e0090000000e80057
:1005d000100798001e009000f90f5000edff340046
:1005e000f0072000d016880000682900810920004b
:1005f0009cff07002f0007000080fa0000000600a3
:100600000600fa00000f780011079800f042800001
:10061000200798002e009000e10f500004003200e7
:100620002e009000e20f50000d003200180037003d
:100630001e00e80080004000c083200000804000d1
:1006400010007800d0168800e022a9000000000009
:10065000e002a80020002000f04288000c003700d3
:100660001e0090000000e80080004000c0832000d1
:100670000080400010007800d0168800e002a90039
:1006800000000000e022a80010002000f0428800d6
:100690000080fa00000006000000fa00e002a90055
:1006a000e022a9000000eb00d01688000080fa00cc
:1006b000000006000000fa0013a1a8001221a90002
:1006c0002111200091407800f0ccb30000c0600000
:1006d0000044a00012e1b700810a20009140780098
:1006e00080cfb30000c060005040b300a8e0b70066
:1006f0008500a9009500a80090e72f005008880009
:0c07000013e1a8000080fa0000000600d1
:020000040000fa
:104d08003600f800809fbe00829fbe00849fbe00d0
:104d1800869fbe003400f80000002000a001880033
:104d28000000fa008560a9007bff0700b4010700b6
:104d380074ee07000080fa003400f9004f03be004b
:104d48004f02be004f01be004f00be003600f90002
:104d5800004006003600f800809fbe00829fbe001b
:104d6800849fbe00869fbe003400f800000020002b
:104d7800a00188000000fa008400a90070438000a8
:104d88000000e000080032000300370000362e0063
:104d980061012000b1ed0700e0c2bf000044b2008d
:104da8000004e000f9ff32000080fa003400f90046
:104db8004f03be004f02be004f01be004f00be00b1
:104dc8003600f900004006003400f800881f78001b
:104dd80008002000a80188004f0478000000fa00ad
:104de8008680a9000080fa003400f900004006001f
:104df8003400f800881f780008002000a801880007
:104e08004f0478000000fa0087a0a9000080fa008b
:104e18003400f90000400600801f78003400f800d4
:104e280000002000a00188000000fa0084e0a9002a
:104e3800604380000000e800604388000080fa00ba
:104e48003400f9004f007800004006003600f800f2
:104e5800809fbe00829fbe00849fbe00869fbe00ca
:104e68003400f80000002000a00188000000fa00cb
:104e78008500a90090e72f0050088800f20007007d
:104e88000080fa003400f9004f03be004f02be0054
:104e98004f01be004f00be003600f900004006007a
:104ea8000000fa002c0007000000370015ee07008c
:104eb8007e000700e0c2bf000044b2000004e0002a
:104ec80017003a0011e1a9000000eb0060438800d8
:104ed80000362e006101200060ed0700cd000700bc
:104ee800e0c2bf000044b2000004e0000c003a0039
:104ef80000202100a107200058ed0700040037001a
:104f0800c400070000d420003100200053ed070042
:104f1800e0c2bf000044b2000004e000f8ff320025
:104f2800d5c2bf00614060000004e00002003a0002
:104f380011e1a900ddff37001eee070011e1a8000e
:104f48006143800030072000808f5000d7ff360073
:104f5800df000700d5ff37000000fa00d101070085
:104f6800fb00070013ee070069000700100020008f
:104f7800ab01070078ed070088000700de42a800b3
:104f880000000000de62a90021a2a80021c2bf0023
:104f98001122200091407800c0cfb30000c060000b
:104fa80021e2b70020e2a80020c2a90020a2a9009f
:104fb8002082a900012220009140780090cfb30000
:104fc80000c060000014a00020e2b7002002a90081
:104fd80023e2a90023a2a90023c2a8002362a900f2
:104fe80022e2a90022c2a90022a2a9002062a900e7
:104ff800100820004011880021e2a8002342a800e0
:105008009580a900910a20009140780000c7b3005c
:1050180000c07000a9e0b7008560a9009560a800ed
:105028007dfe0700b7ed07000080fa0000000600cb
:105038000600fa0010079800210798000000eb000e
:10504800000f78001e0090000000e900100798008b
:105058002e009000e10f500008003a0011002000d7
:105068001e0090000008dd008000780040168000d7
:1050780000807000000f7800080037001100200041
:105088001e0090000008dd000080ea008000780023
:105098004016800000806000000f78001e00780035
:1050a800401688000080fa00000006000200fa009e
:1050b80010002000000f7800100037001e00780054
:1050c80080004000008020000080400090007800b0
:1050d800f00f2000808f500004003a001e00780076
:1050e80011002000d2ff0700030037001e007800df
:1050f8008000eb00ceff07001e0fe800e001200053
:105108009e0f1000edff36000080fa000000060038
:105118000200fa0021e3a9000080eb006019880072
:105128000000eb00301688000000eb0040168800f5
:1051380010002000000f7800070037001100200041
:105148001e007800baff070000122a007100200034
:10515800c2ec07001e0fe800000120009e0f10009f
:10516800f6ff340000012000000f78000700370028
:105178008000eb001e007800adff070000122a0037
:1051880071002000b5ec07001e0fe9001e00e000ca
:10519800f7ff3d000080fa00000006000000fa005a
:1051a8000efc070010002000bcfc070080007800ff
:1051b800f00f2000808f50000a003a0010082000ed
:1051c80050438800110020000000eb0027fd070075
:1051d800504380008000eb0024fd07000000fe0023
:1051e800030037000000eb00acfc070050438800c8
:1051f8000080fa00000006000200fa00000f7800a4
:105208001e0078008000eb0018fd07000080fa00ff
:10521800000006000000fa0051438000f00f200053
:10522800808f500003003a00100820005043880087
:1052380003003700504380000000e8005043880016
:105248000080fa00000006000000fa0050438000c9
:105258006f01600051438000f0072000008060006b
:105268004480de0082007800e3ec07000080fa004a
:10527800000006000000fa0011e1a9000000eb00a0
:1052880060438800e3ff0700e0c2bf000044b200ab
:105298000004e0000c003a0000202100a1072000d3
:1052a8006eec070004003700daff070000d4200086
:1052b8003100200069ec0700e0c2bf000044b200e2
:1052c8000004e000f8ff32000080fa000000060049
:1052d8000000fa0011e1a9001000200070438800c6
:1052e80050438000c4ff070032ed070005ed0700ba
:1052f80000242400f100200058ec070020002000c2
:10530800c7000700e2ec07008400a9009400a80089
:105318008680a9009680a8000040fe008400a900ad
:105328009400a9008680a9009680a90021ed0700b5
:1053380010002000ba0007000000eb00604388005e
:105348000000eb00704388000080fa0000000600af
:105358000000fa001061a9001021a9000111200025
:1053680091407800f0ccb30000c060000044a00079
:1053780010e1b700710a200091407800f0c8b3002e
:1053880000c0600001c5b30001407000a7e0b7008d
:1053980084e0a90094e0a8000000eb0070438800b6
:1053a800dec2a800410a20009140780080cfb300f7
:1053b80000c060000014a000a4e0b7008200a900ab
:1053c8008400a900020007000080fa00000006001f
:1053d8000000fa00d502a900d302a8008220a80084
:1053e800e10a20009140780080cfb30000c060003f
:1053f8006040b300aee0b7000080fa00000006008d
:105408000400fa0010079800514380001e00900025
:10541800810f500003003a0010002000004388006c
:105428002e003700004380000000e0002b0032000f
:105438000000eb00004388001e0090004400de00de
:10544800610060000004e000200032001e009000af
:105458006f006000000fe8001e0078008000400028
:10546800008020000080400090007800f00f2000ad
:10547800808f500007003a001e007800800040002e
:1054880000802000808040000000eb008008780049
:10549800120037001e0078008000400000802000c5
:1054a80000804000100078000000e0000b003a0087
:1054b8001e007800800040000080200080804000ae
:1054c800f00f200080087800040037001e009000cc
:1054d8000000e00001003a00020007000080fa0026
:1054e800000006000200fa000071220001002000fe
:1054f800daeb070040438000110020000008dd00bf
:10550800008fea000000eb0063fd07000000eb00dd
:0c55180061fd07000080fa0000000600a2
:020000040000fa
:10070c000200fa001e000700120007001000200073
:10071c00000f78000a0037001e00780080004000af
:10072c0000802000008040001000780005110700b8
:10073c00001920000100200047ff07001e0fe800f1
:10074c00e00120009e0f1000f3ff34000080fa003f
:10075c00000006000000fa00c00320000100200089
:10076c003dff07000000eb00f6100700802520007d
:10077c000100200038ff07000080fa00000006008e
:10078c000000fa00c05d20000100200032ff0700cd
:10079c00d202a900d402a900803e20000100200052
:1007ac002dff0700d202a8000080fa00000006000e
:1007bc000200fa000000eb00000f78000700370081
:1007cc001e007800800040000080200080804000e7
:1007dc000000eb00800878001e0fe800e00120000c
:1007ec009e0f1000f6ff34000080fa000000060097
:020000040000fa
:10552400000800003c000000000000003c080000ef
:1055340024000000020000003f003f0000060000bd
:105544005b004f00006600006d007d000007000056
:105554007f006f00007700007c003900005e0000cf
:1055640079007100000100006608000002000000dc
:1055740000000000600800000600000002000000b7
:1055840000000000000000006808000002000000a5
:10559400000000006a080000020000000000000093
:1055a4006c0800000200000002000000000000007f
:1055b4006e0800000200000000000000000000006f
:020000040000fa
:1055c4001080ba00000006001000ba0000000600b7
:1055d400801f78000500fc0050052000303b880047
:1055e400a00a2000303b880061e7a800000000000a
:1055f4000000000061e7af00feff37004f007800b5
:10560400000006008088bb000000060080c8bb00c4
:10561400000006008008bb00000006008048bb00b4
:10562400000006000200fa00000f7800d222a90050
:10563400d242a9001e00e00003003a00d422a900cf
:10564400d442a9000b003700100020009e0f100068
:1056540003003a00d422a800d442a8000500370071
:10566400200020009e0f100002003a00d422a8005f
:10567400d442a9000080fa00000006000200fa00eb
:10568400000f780004003700006829008109200019
:1056940073eb07001e0fe9001e00e000faff3a005a
:1056a4000080fa00000006000000fa00e522a900cc
:0c56b400e722a8000080fa0000000600b9
:00000001FF
